:020000040800F2
:100000000000022075030008C5030008C5030008AE
:10001000C5030008C5030008C50300080000000070
:10002000000000000000000000000000C503000800
:10003000C503000800000000C5030008C503000850
:10004000C5030008C5030008C5030008C503000870
:10005000C5030008C5030008C5030008C503000860
:10006000C5030008C5030008C5030008C503000850
:10007000C5030008C5030008C5030008C503000840
:10008000C5030008C5030008C50300080000000000
:10009000000000000000000000000000C503000890
:1000A000C5030008C5030008C5030008C503000810
:1000B000C5030008C5030008C5030008C503000800
:1000C000C5030008C5030008C5030008C5030008F0
:1000D000C5030008C5030008C503000800000000B0
:1000E000C5030008C5030008C503000800000000A0
:1000F000000000000000000000000000C503000830
:1001000000000000C5030008C5030008C50300087F
:1001100000000000000000000000000000000000DF
:10012000C5030008C5030008C5030008C50300088F
:10013000C5030008000000000000000000000000EF
:10014000000000000000000000000000C5030008DF
:10015000C5030008C5030008C5030008C50300085F
:10016000C5030008C50300080000000000000000EF
:10017000000000000000000000000000000000007F
:1001800000000000C503000800000000000000009F
:08019000C5030008C5030008C7
:100198000348044B834202D0034B03B1184770470E
:1001A8000000002000000020000000000548064B69
:1001B8001B1AD90F01EBA301491002D0034B03B15D
:1001C80018477047000000200000002000000000D1
:1001D80010B5064C237843B9FFF7DAFF044B13B187
:1001E8000448AFF300800123237010BD00000020F5
:1001F800000000001004000808B5054B1BB10549B4
:100208000548AFF30080BDE80840FFF7CFBF00BF47
:1002180000000000040000201004000880B400AFB3
:10022800224B1B68214A43F48033136000BF1F4BE5
:100238001B6803F40033002BF9D01D4B4FF4C06248
:100248001A601A4B1B4A5A60184B1B68174A43F02E
:100258008073136000BF154B1B6803F00073002BFD
:10026800F9D0124B114A9B689360104B0F4A9B6858
:1002780093600E4B0D4A9B6893600C4B9B680B4A2E
:1002880043F00103936000BF084B9B6803F00C0325
:10029800042BF9D1054B1B68044A23F001031360B2
:1002A80000BFBD465DF8047B704700BF00380240C0
:1002B800003C02400F24400580B400AF084B1B6B84
:1002C800074A43F004031363064B1B68054A43F0CF
:1002D8008063136000BFBD465DF8047B704700BFB4
:1002E800003802400008024080B582B000AFFFF736
:1002F80095FF4FF0A0439B6B4FF0A04243F40013CF
:100308009363FFF7D9FF124B5B69114A43F400531B
:10031800536100237B6003E000BF7B6801337B608F
:100328007B680C4A9342F7DD094B5B69084A23F462
:100338000053536100237B6003E000BF7B680133F7
:100348007B607B68044A9342F7DD00237B60DAE731
:1003580000080240B3C40400CF12130080B400AFF9
:1003680000BFBD465DF8047B70470000DFF834D05D
:10037800FFF7F4FF0C480D490D4A002302E0D4585A
:10038800C4500433C4188C42F9D30A4A0A4C0023D7
:1003980001E013600432A242FBD300F011F8FFF72A
:1003A800A3FF70470000022000000020000000208A
:1003B80030040008000000201C000020FEE70000B8
:1003C80070B50D4B0D4D5B1B9C100026A64209D144
:1003D80000F01AF80A4D0B4B5B1B9C100026A64236
:1003E80005D170BD55F8043B98470136EEE755F83E
:1003F800043B98470136F2E728040008280400085F
:10040800280400082C040008F8B500BFF8BC08BC94
:100418009E467047F8B500BFF8BC08BC9E467047BA
:0404280001020008C5
:04042C00D9010008EA
:040000050800037577
:00000001FF
